:020000040000fa
:080000000002040000000000f2
:020000040000fa
:10000800cc020000cc020000cc020000cc020000b0
:10001800cc020000cc020000cc020000cc020000a0
:10002800cc020000cc020000cc020000260e00002a
:10003800cc020000cc020000cc0200002e0e000012
:10004800cc020000cc020000cc020000cc02000070
:10005800cc0200004c0f0000cc020000cc020000d3
:10006800cc020000cc020000cc020000cc02000050
:10007800cc020000cc020000cc020000cc02000040
:10008800cc020000cc020000cc020000cc02000030
:10009800cc020000cc020000cc020000cc02000020
:020000040000fa
:10040000ef5f21000eff2c000e01880000000000ad
:1004100000012000200288000c00070060fd200081
:10042000010020000f000700000020000000e00095
:10043000020032000000020000000000bc0d0200bb
:10044000000000000040da000000fe002000200054
:100450000000e0000200320000202000900188002f
:1004600000000600a1028800800078000000eb0078
:100470001a003700e280400054a0b4009101ba0095
:10048000e280400054a0b4009102ba00e280400033
:1004900054a0b4000002eb00472bde00f507b200c9
:1004a000a6018800602ce10008003a000049eb003a
:1004b0000201e800020039003420ec0002f0a00044
:1004c0008301e900f9ff3e00040037006128e100e4
:1004d000010032000082eb00040007001101ba00a5
:1004e0000200e000e3ff3a000000060004d0a30091
:1004f000e20f49001c003900810278003549ba003a
:100500000201e800020039003420ec0002f0a000f3
:100510008301e9000f0032002549ba000201e8001a
:10052000020039003420ec0002f0a0008301e90051
:10053000080032000400e0000600320015c9ba00cd
:100540000201e800020039003420ec0002f0a000b3
:100550008301e9008180e80054a0b4000300e000ba
:10056000e2ff3a00000006009102ba000559780047
:100570008301e900f7ff3200c82ade000559780040
:100580008301e900f3ff32000400e000f1ff3200d4
:1005900011d9ba00eeff37000040da000000fe007b
:1005a0000000fa0001a8a900e7026000c42add00eb
:1005b00036428000f4f82f00040263000502720046
:1005c00034428800680060004300de006100600083
:1005d0004d00dd000441800004d0a1000002720043
:1005e000044188000080fa00000006000000fa00c4
:1005f000901180000010b2000000e9004f00de0002
:100600000080fa00000006000000fa00841180005b
:1006100066026200e60f520001003200f00fb200e5
:10062000a01188000080fa000000060003f0a2007c
:10063000889fbe008a9fbe008c1f7800f9000700cb
:10064000000133006450e1004f0032006420e100fb
:100650005200320003826c0007003b000905d00005
:100660000306d000820f54000c065d000200390022
:100670000200320089017800030678008582550067
:1006800004003d000003fd008103fd008502ea0037
:100690008b854200840f720002003b006000100056
:1006a000e08018006011b8000005eb007a28e10036
:1006b0000a00390006007800c75ddd00f707b200c8
:1006c000878075002d003700828171000a01780053
:1006d000610560008180d1000080d3008502e900bf
:1006e000f9ff3b00060440008784480002003b00fd
:1006f00060041400e0841c000988a3000700320095
:100700008a81710082817100610164008904d100d5
:100710000884d3008b05e800170037000978a30090
:1007200013003a000b00e000130034008b05e900d1
:100730000804440089844c000a4474000978a3002a
:100740000d003a000b00e000070034008b05e900c3
:100750000804440089844c0001003a000b0020008a
:100760000978a300f7ff32000001eb000200370018
:10077000828171000a0178006f0007000cf0a70069
:1007800001f0a000b80037006420e10002003a0048
:10079000838f6c00b80033000801be000200be0069
:1007a000b10037000081eb00ea003700889fbe00ef
:1007b0008a9fbe008c1f78009a000700a1003300ba
:1007c00003866c006450e1002e0032006420e100da
:1007d000330032006150e1002f0032006120e1005f
:1007e0003100320085855500eb07b000090020007c
:1007f00008042000050037000804440089844c00e8
:100800000a0031000603430087834b0000015300b8
:1008100081815b00f8ff33000203be000800a000e6
:100820000804440089844c00f6ff3900c639dd0015
:100830008301730001003200130020008904d100fd
:100840000884d3000998a300050032000800a7001f
:100850000300a0008904d1000884d3008b05e800c0
:100860008904d1000884d3000001eb000281d2008a
:100870003100070001f0a1000cf0a70001f0a0007a
:10088000790037006420e1007b0032000801be00df
:100890000200be00f7ff37006120e1007600320061
:1008a0006000b800f3ff37000000200001f82700c7
:1008b000f0ff37001400200011013700f4ff2f0073
:1008c0000f0137000001be00410007000470a700bf
:1008d00003f0a10003f8a30013003a006509b1007a
:1008e00010003200090035006928e10002003500df
:1008f0000100280000000500000040008180480041
:100900008502e900fcff3a0000000600f88f420073
:10091000050035008100d1000080d3008502e80089
:10092000fcff3a00000006008000eb00000005001c
:100930006011b8003101370081002000618055004e
:100940000b003d000b00200061fe2f000100e100c4
:100950001d00340082817100610164008904d100ae
:100960000884d3000000e800faff3a00710020007c
:1009700061006400030070000200600009003200a2
:1009800061044400e0844c000988a50005003200a1
:100990008b05e8006808e10002003a008904d100f4
:1009a0000884d300f20f20000258e10005003d004a
:1009b000c75ddd00f907b200898075000800780086
:1009c000000006000bf827008b00780000000500ef
:1009d000c70ade00f107b200f50fb20008003200ce
:1009e000e1cf4200020032000170a00024000500a7
:1009f000810f70000100320004080500440005006a
:100a0000810f700002003a00140005008502e90021
:100a10000000400081c04800fcff3b000170a000c6
:100a2000240005000004be00e9ff07000003be002b
:100a30000405be000200be00e5ff0700844f7500fc
:100a4000000006000200be006450e1000500360010
:100a50006420e100020036000968a30001003a00aa
:100a60000800be000160a0004f0678004f05be00e0
:100a70004f04be0000000600f0ff2f00f1ff27002a
:100a8000f9ff3700889fbe008a9fbe008c1f780048
:100a9000e4ff0700ebff330003866c006450e100c5
:100aa000240032006420e100270032006150e100a0
:100ab000220032006120e100210032008b854200db
:100ac000eb07b1000134b800003ab8000804420056
:100ad00089844a00013ab8000030b800888040009c
:100ae00009014a00040033000000400081804800f2
:100af000020149008b05e900c909dd00830170008e
:100b00000100320013002000c814de004814dd008c
:100b10004709de001200b200c808de000884700039
:100b200085ff070001f0a1000cf0a70001f0a00074
:100b3000cdff37006120e100cfff32000801be0089
:100b40000200be00f7ff37006150e100fcff3a00f1
:100b5000c9ff3700889fbe008a9fbe008c9fbe00e1
:100b6000820578000004be0099ff07000800be005f
:100b70006420e1000700390002003a00f1ff27007d
:100b8000f0ff2f000160a00012022000c2ad88001b
:100b9000550037006120e10003003a000b00a70078
:100ba00001f823005000370001f0a10002002100ed
:100bb000936424003fff07000800be0004003500d6
:100bc000b2fd2000930c2400bb0007000004be000f
:100bd0000005eb000b00a6004f0dde0001f0a100a8
:100be0000004be0032982f0023ea2300a5ff07006f
:100bf0000001eb0003f023000b00a70003f8230023
:100c00008bfe0700590007000000a7000a00a200a1
:100c1000770007000b00e000030032000200200014
:100c200003f0230081fe070001f0a2000006be00d1
:100c3000020020009304240092ff07000801be0078
:100c40007bfe0700809fbe000c00be0022a22a008f
:100c5000d3a723008bff07004f01be0074fe0700df
:100c60000004be0001f0a100020020000398230050
:100c700010ff07000800be00190035000001be008b
:100c800080ff07000006be00b2c52900e362230012
:100c90007cff070022222b00f3942b0064fe070048
:100ca0000c01be0077ff0700e273280083c0230019
:100cb0005ffe07000c01be0072ff070042aa2a0077
:100cc000a3e22b005afe07000c01be006dff0700d7
:100cd0000801be006bff07000801be0054fe0700bc
:100ce0000a00a70001f0a2004f06be004f05be009b
:100cf0004f04be00000006000001eb0095ff370026
:100d0000889fbe008a9fbe00841f780045ff0700b1
:100d10004f00780011003300f0ff2f00838f6c002c
:100d200006003b00040565000a00a7000800370024
:100d300009f0a6001000200008003700820f5400c0
:100d4000838f5c00030039001000200001003e008a
:100d50000000200009f0a7000000ea004f05be00d7
:100d60004f04be000000e000000006000001be00cd
:100d700017ff07000470a70003f0a1006509b10088
:100d8000160032000d0035006828e100060035002d
:100d9000f0ff2f00f1ff27000300e00013003b00ed
:100da000010028000000050000004000818048008c
:100db0008502e900fcff3a0008003700f88f420086
:100dc00002003c008000eb00000005008100d10023
:100dd0000080d3008502e800fcff3a000300e00039
:100de00002003b0060001000e080180000000600d8
:100df0004f89de008201780080003700889fbe00a6
:100e00008a9fbe000082700004027100048271009b
:100e1000260032000004be000200be006011b800cf
:100e20006b092000950220000182cf000a003900e2
:100e30000541b1000082cf00070039000541b10033
:100e40000982cf00040039000541b1000882cf00bb
:100e5000010039000541b100054252001200320084
:100e60000a003b0082817100610164008100d100b1
:100e70000080d3008984d3000884d3008b05e80068
:100e80000442e800f7ff3a00070037000804440076
:100e900089844c0000004800818048008b05e900ef
:100ea0000442e900f9ff3a00a3fe07004f05be0027
:100eb0004f04be00000006000400200000003700c0
:100ec000889fbe008a9fbe008c1f78004f26dd00e1
:100ed000d4fe0700dbfe33006120e1004300320056
:100ee0006250e10041003e003e0039006420e10014
:100ef0003c003200058255000f003b000402e80070
:100f000038003a00800f5300818f5b0035003400b9
:100f10000800be0003f0a10001f0a60003f0a0004d
:100f20000cf0a700c2fd0700cffe37000603430008
:100f300087834b000c4646000005530081855b000b
:100f4000020033000a03be000c00a0000402e90006
:100f5000f6ff3b00850578000602430087824b00c0
:100f600004003a006000b80009f0a70001f0a000fa
:100f7000bdfe37000002520081825a000704e000e3
:100f8000040033000603430087834b008b05e90010
:100f9000faff3700090578000604be000203be0010
:100fa0006011b80064fe0700e00f5200e08f5a00a5
:100fb0000700350002003c000c08a30004003200ca
:100fc0000601be0003f0a0000cf0a70098fd07008a
:100fd0000a85680001f0a1000af0a70001f0a00056
:100fe000a1fe37000800be009ffe3700100220005f
:100ff0000cf0a600c0ad88009ffe3700881f780067
:10100000030478000300e00007003d0060001000ca
:10101000e080180060011900e081190002003b0027
:1010200001f02d000300370074ff070008f0a7004f
:1010300001f0a0004f047800000006000000fa0054
:10104000010278000100370005007800809fbe0093
:10105000110009000282d800000278004f00be0093
:101060008002e800e00f5200f7ff3a00844a78005f
:1010700080027800110009008280d8008002fd0003
:101080000102780085007800e94f52000100340029
:101090006742420006c3b30006504200e08f520090
:1010a000f3ff3a000080fa00000006000000fa009a
:1010b000881f780000047800e08f500005003d0094
:1010c00008007800d4c2b300045878008100ea0018
:1010d0000100370008007800d8ff070008007800fa
:1010e0004f0478000080fa00000006000000fa00bb
:1010f0000002780002003700015a78000201e9007e
:10110000e00f5100fcff3a000080fa0000000600ea
:020000040000fa
:04111000fc150000ca
:020000040000fa
:101114001a00fa00889fbe0004af800015af80005b
:101124000400be00f3fe07000002be00140798008e
:101134002507980004af800015af80000400be00ae
:1011440097fd07000002be00340798004507980089
:1011540044af800055af80003e019000ce01900066
:101164000400be0046fe07000002be000404be00e8
:1011740024af800035af80001e019000ae019000c6
:101184000400be003efe07000002be000401be00d3
:101194000800be0024fd07000002be0054079800aa
:1011a4006507980024af800035af80003e019000b1
:1011b400ce0190000400be0031fe07000002be0014
:1011c4000404be0044af800055af80001e019000af
:1011d400ae0190000400be0029fe07000002be001c
:1011e4000401be000800be0010fd07000002be009e
:1011f40014079800250798000002eb00040f7800fc
:10120400200037009e02780063824200c222dd0083
:10121400a4572100048242001402be001e01900063
:10122400ae0190000400be0015fe07000002be00df
:101234000404be001e027800c222dd00a45721006f
:10124400048242001402be005e019000ee01900090
:101254000400be000afe07000002be000401be0036
:101264000800be00f1fc07000002be001e03780067
:101274004233dd006e03430006034700048bbe00c7
:101284001e0fe8001e027800e20f5200ddff34005a
:101294007e0290008e0a900018c0b3006011b8005e
:1012a4000400be0084fd070000027800e00f520035
:1012b40001003d000044eb00e04f54008300320085
:1012c4001e0a9000ae0a900018c0b3006011b80066
:1012d4000400be0078fd070000027800e00f520011
:1012e40001003d000044eb00e04f540023003200b5
:1012f4001e0a9000ae0a900002002000832c2400f5
:101304000400be00defd07000002be0014079800c2
:10131400250798006022b800c4af8800d5af8800c4
:101324001e029000ae02900064af880075af880082
:101334007e0290008e0a900002002000832c24007c
:101344000400be00cefd07000002be001e01900096
:10135400ae0190000400be00b4fc07000002be0011
:10136400a4af8800b5af8800040020000504240061
:1013740084af880095af8800d80037003e0a9000fb
:10138400ce0a900018c0b3006011b8000400be007b
:1013940049fd070000027800e00f520001003d0003
:1013a4000044eb00e04f5400230032007e02900022
:1013b4008e0a900002002000832c24000400be004a
:1013c400affd07000002be0014079800250798002f
:1013d4003e0a9000ce0a900002002000832c2400d4
:1013e4000400be00a6fd07000002be001e0190001e
:1013f400ae0190000400be008cfc07000002be0099
:10140400c4af8800d5af88006022b80064af8800fc
:1014140075af88001e029000ae029000a4af880051
:10142400b5af880004002000050a240084af8800ba
:1014340095af8800a90037001e0a9000ae0a9000fc
:1014440005f0a20002002000832c24000400be004a
:101454008bfd07000002be001407980025079800c2
:101464001e029000ae029000c4af8800d5af880081
:101474006022b80064af880075af88003e0a90000f
:10148400ce0a900005f0a20002002000832c240064
:101494000400be007afd07000002be001e01900099
:1014a400ae0190000400be0060fc07000002be0014
:1014b400a4af8800b5af88000400200005f823001d
:1014c40084af880095af8800840037001e0a90001e
:1014d400ae0a900018c0b3006011b8000400be004a
:1014e400f5fc070000027800e00f520001003d0007
:1014f4000044eb00e04f5400540032003e0a9000d8
:10150400ce0a900018c0b3006011b8000400be00f9
:10151400e9fc070000027800e00f520001003d00e2
:101524000044eb00e04f5400230032003e0a9000d8
:10153400ce0a900002002000832c24000400be0088
:101544004ffd07000002be0014079800250798000d
:101554001e029000ae029000c4af8800d5af880090
:101564001e0a9000ae0a900002002000832c240082
:101574000400be0042fd07000002be001e019000f0
:10158400ae0190000400be0028fc07000002be006b
:1015940064af880075af88006022b800a4af8800eb
:1015a400b5af880004002000050c240084af880037
:1015b40095af8800490037003e0a9000ce0a90009b
:1015c40005f0a20002002000832c24000400be00c9
:1015d4002bfd07000002be001407980025079800a1
:1015e4006022b800c4af8800d5af88007e029000a6
:1015f4008e0a900005f0a20002002000832c240033
:101604000400be001efd07000002be001e01900083
:10161400ae0190000400be0004fc07000002be00fe
:1016240064af880075af88001e029000ae0290007f
:10163400a4af8800b5af8800040020000500240092
:1016440084af880095af8800240037007e029000a4
:101654008e0a900005f0a20002002000832c2400d2
:101664000400be0006fd07000002be001407980037
:10167400250798001e0a9000ae0a900005f0a2000b
:1016840002002000832c24000400be00fcfc0700a0
:101694000002be001e019000ae0190000400be00d6
:1016a400e2fb07000002be00c4af8800d5af88008b
:1016b4001e029000ae02900064af880075af8800ef
:1016c4006022b800a4af8800b5af880004002000f1
:1016d4000508240084af880095af88004f04be003d
:1016e4000080fa00000006000000fa004444840070
:1016f4008002eb00050a7800020120008000eb0064
:10170400c05e210078fe07006022b80004af8800a4
:1017140015af88006022b80024af880035af880078
:101724006022b80044af880055af880094ac8000b4
:10173400a5ac800004af880015af8800b4ac80006d
:10174400c5ac800064af880075af8800d4ac80005d
:10175400e5ac800084af880095af8800f4ac8000cd
:1017640005ad800024af880035af880014ad80003b
:1017740025ad8000a4af8800b5af880034ad8000eb
:1017840045ad8000c4af8800d5af880054ad80005b
:1017940065ad800044af880055af88000080fa0032
:1017a400000006000000fa000080fa0000000600b5
:1017b4000000fa0031e2a90031a2a9003182a90097
:1017c4003162a900841180000480a1000490a1006a
:1017d4008411880030e2a80030c2a90030a2a90018
:1017e4003082a900841180000410a1000420a1000b
:1017f400841188003002a9003062a900044024004a
:1018040074428800941180000460a1000470a10057
:10181400941188003222a900a4012000c411880078
:1018240031e2a8003342a8003536800004f82f00c6
:101834008482620014062000048272003436880018
:101844007534800004fc2f00048262005400b3004d
:10185400743488000080fa00000006000000fa00da
:10186400843e2000246088000002eb00446188006c
:101874000002eb00846188000002eb0044628800ef
:101884000002eb00846288000002eb0044638800dd
:101894000002eb00846388000002eb0034618800de
:1018a400843e2000746188000002eb0034628800ea
:1018b400843e2000746288000002eb0034638800d8
:1018c400843e2000746388000002eb0054638800a7
:1018d400546380005462880054628000546188001c
:1018e4000002eb0064638800646380006462880023
:1018f400646280006461880004c02c001463880062
:1019040014638000146288001462800014618800eb
:101914000002eb0004638800046380000462880012
:10192400046280000461880034002000246388007d
:10193400246380002462880024628000246188007b
:101944000002eb0014608800040028000460880092
:10195400202ea900204ea900242ea800244ea90060
:101964000080fa00000006000000fa00a404200031
:10197400343a8800253a800004fe2f000482620075
:10198400243a8800243a80000460a1000470a10075
:10199400243a88001600200084072000a5092000ae
:1019a40037742000844b7800854b7800864b780090
:1019b400143a8000040378000600a00064042000a8
:1019c4007505200027742000844b7800854b78002f
:1019d400864b780000000000153a800004002700c0
:1019e4008482620004002100848f5200faff3a00ce
:1019f40000000000153a8000040220000482620006
:101a0400e00f5200fbff32000080fa0000000600e5
:101a14000000fa00210ea900250ea80030cea9006e
:101a240034cea800214ea90010eea90021aea900d1
:101a3400200ea800202ea800202ea8002e0ea900fb
:101a44002e2ea9002e4ea9000080fa0000000600e8
:101a54000000fa0005e1a9000421a90004c1a900bd
:101a6400240880000440a0000450a000240888003a
:101a74000002eb0004088800041920001408880000
:101a84000442800004c0a00004d0a10004e0a1002e
:101a9400044288000068a9002068a80005e1a800a5
:101aa4000002eb008408880000e8a90043c8a800ed
:101ab40020e8a800843e200064088800040328006d
:101ac40084088800840880000440a0000450a0001a
:101ad400840888000080fa00000006000000fa0074
:101ae4000002eb0004198800041980000450a000cf
:101af4000460a0000470a000041988002043a8001a
:101b04000002eb00141988000002eb00241988007d
:101b140025198000f40f2e008482620004f0200056
:101b240004827200241988000002eb0094198800d2
:101b34000002eb00f4708800f47080007470880078
:101b44000e0ea8000002eb0044198800451980001d
:101b540004fc2f0004826200441988003003a800aa
:101b6400b0ff2f008dfa070021e3a8000080fa00df
:101b7400000006000200fa00a5ff07007aff070034
:101b8400d6ff070000002100ca000700b0ff0700cd
:101b940032ff070090c1b300db00070001003700eb
:101ba400000000000042eb00044f7800045b2100b9
:101bb40014427800e04f5200f9ff32000042eb007b
:101bc400044f78000c0037001e02fb008402420020
:101bd400e4002100048242001402780084027800a8
:101be40064172100a200200085007800040078001a
:101bf4002dfd07001e4fe80094c5b3009e427800f7
:101c040084cf5200f0ff34000042eb00044f780010
:101c14009e02fb00641721000482420014427800f3
:101c24000482fb000400780076fa0700000000003c
:101c34006dfa070000427800e04f5200fcff3a00c2
:101c44001e4fe800f2ff37000000fa000068a90008
:101c54000080fa00004006003600f800809fbe00b5
:101c6400829fbe00849fbe00869fbe00881f7800ae
:101c74000000fa00145b210014427800e04f520087
:101c84002800320084572100144278000442e800fe
:101c94000400780078f5b70094ad8000a5ad80000d
:101ca400c2f5280023e423000400be005ffa070005
:101cb4000002be0094ad8800a5ad880094ad8000fc
:101cc400a5ad80000400be008800070094ad80002c
:101cd400a5ad800018c0b3000200200083182400c2
:101ce4000400be00f4fa070000027800e00f52007e
:101cf40001003d000044eb00e04f54002c00320092
:101d04000042eb000002fd00b1f5b7000002fd0047
:101d140014c0b3000002fd00b0f5b7000002fd00de
:101d24002300370084572100144278000442e9005c
:101d34000400780078f5b70094ad8000a5ad80006c
:101d4400c2f5280023e423000400be0036fa07008d
:101d54000002be0094ad8800a5ad880094ad80005b
:101d6400a5ad80000400be006000070094ad8000b3
:101d7400a5ad800018c0b3000200200083182c0019
:101d84000400be00cafa070000027800e00f520007
:101d9400010034000044eb00e04f54000400320022
:101da40014c0b3000002fd00b1f5b7000002fd004d
:101db40084572100144278000402fb00b5ab800074
:101dc40004034200e400210004024300050a7800f1
:101dd400600007000480800015808000020020005d
:101de400031224000400be006ffa07000002be00c4
:101df4000400be00b2fa07000002be00040278002c
:101e04003461880024808000358080000200200036
:101e1400031224000400be0063fa07000002be009f
:101e24000400be00a6fa07000002be000402780007
:101e340034628800448080005580800002002000c5
:101e4400031224000400be0057fa07000002be007b
:101e54000400be009afa07000002be0004027800e3
:101e6400346388000042eb0004007800b0f5b7004a
:101e740000e8a9000080fa004f0478004f03be0078
:101e84004f02be004f01be004f00be003600f900f5
:101e940000400600841f78000000fa000418800047
:101ea400b4ab880001a8a9000080fa004f027800b2
:101eb400004006000200fa00000f78001e027800bd
:101ec400e00f52000500320007fe07001e027800f2
:101ed400b4ad880014c0b300010037000042eb0029
:101ee400044078000080fa00000006000400fa00b4
:101ef400008fbe001e02be0004af880015af88002c
:101f04000080fa00000006000200fa00004f78008a
:101f14001e4278000482fb00050020000400be007d
:101f240082fa07000002be0024af880035af8800a3
:101f34000080fa00000006000400fa00008fbe00d2
:101f44001e02be0044af880055af88000080fa002e
:101f5400000006000000fa006dfc0700b6ad80002a
:101f6400a4af8000b5af8000048bbe00b6ad800086
:101f7400c4af8000d5af80002403980035039800d7
:101f8400b6ad800064af800075af80004403980054
:101f940055039800b5ad800014c0b300c44a98003e
:081fa4000080fa0000000600b5
:020000040000fa
:101fac00001000007a05000080000000ae15000053
:101fbc0008000000820000000f000000000000007c
:101fcc0000000000b61500000200000080000000b8
:101fdc00e01500001e000000800000007a150000d3
:101fec003400000082000000000080003f00000070
:101ffc0000bf00000000bf000000000000d7b300cd
:10200c005d3fd700b35dbf00000000000000000082
:10201c0000000000000000000000000000000000b4
:10202c0000000000000000000000000000000000a4
:10203c00c01500002000000080000000b815000052
:0c204c0002000000800000000000000006
:020000040000fa
:02000004000af0
:04afe000dfff00008f
:020000040000fa
:02000004000af0
:04afe8007fff0000e7
:020000040000fa
:02000004000af0
:04afec007fff0000e3
:020000040000fa
:02000004000af0
:04aff00038ff000026
:00000001FF
